S00B00004558332E7372656349
S11300000C9434000C9451000C9451000C94510045
S11300100C9451000C9451000C9451000C94510018
S11300200C9451000C9451000C9451000C94510008
S11300300C9451000C9451000C9451000C945100F8
S11300400C9451000C9451000C94B5000C94510084
S11300500C9451000C9451000C9451000C945100D8
S11300600C9451000C94510011241FBECFEFD8E022
S1130070DEBFCDBF11E0A0E0B1E0EAEBF1E002C0E9
S113008005900D92AE30B107D9F721E0AEE0B1E0B2
S113009001C01D92A431B207E1F70E948F000C94B5
S11300A0DB000C9400009091C00095FFFCCF80937E
S11300B0C60008959093C5008093C4001092C000B8
S11300C0E1ECF0E088E180838EE08093C2008081DF
S11300D080688083089584B1806284B985B18F7DFE
S11300E085B983E390E00E945A0008951092850038
S11300F01092840089E09DE39093890080938800A6
S11301001092800085E08093810010928200B19B60
S1130110FECF86B3826086BB10928100089580E092
S113012091E090931101809310010E946B007894E8
S113013085B1806285B90E94760085B18F7D85B9CD
S11301400E94760085B1806285B90E94760085B1EF
S11301508F7D85B90E94760013BE85EE809364007E
S113016083B7816083BF8895E3CF1F920F920FB648
S11301700F9211242F933F934F935F936F937F9329
S11301808F939F93AF93BF93EF93FF938091C60098
S11301900E945300FF91EF91BF91AF919F918F9176
S11301A07F916F915F914F913F912F910F900FBE6F
S10D01B00F901F901895F894FFCFEC
S11101BA0000000200000000530000000000DE
S9030000FC
