
ex1.elf:     file format elf32-avr

Sections:
Idx Name          Size      VMA       LMA       File off  Algn
  0 .data         00000000  00800100  00800100  00000138  2**0
                  CONTENTS, ALLOC, LOAD, DATA
  1 .text         000000e4  00000000  00000000  00000054  2**1
                  CONTENTS, ALLOC, LOAD, READONLY, CODE
  2 .comment      00000030  00000000  00000000  00000138  2**0
                  CONTENTS, READONLY
  3 .note.gnu.avr.deviceinfo 00000040  00000000  00000000  00000168  2**2
                  CONTENTS, READONLY
  4 .debug_aranges 00000040  00000000  00000000  000001a8  2**3
                  CONTENTS, READONLY, DEBUGGING
  5 .debug_info   0000073c  00000000  00000000  000001e8  2**0
                  CONTENTS, READONLY, DEBUGGING
  6 .debug_abbrev 0000062b  00000000  00000000  00000924  2**0
                  CONTENTS, READONLY, DEBUGGING
  7 .debug_line   000002bb  00000000  00000000  00000f4f  2**0
                  CONTENTS, READONLY, DEBUGGING
  8 .debug_frame  00000024  00000000  00000000  0000120c  2**2
                  CONTENTS, READONLY, DEBUGGING
  9 .debug_str    0000036e  00000000  00000000  00001230  2**0
                  CONTENTS, READONLY, DEBUGGING
 10 .debug_ranges 00000010  00000000  00000000  0000159e  2**0
                  CONTENTS, READONLY, DEBUGGING

Disassembly of section .text:

00000000 <__vectors>:
   0:	0c 94 34 00 	jmp	0x68	; 0x68 <__ctors_end>
   4:	0c 94 3e 00 	jmp	0x7c	; 0x7c <__bad_interrupt>
   8:	0c 94 3e 00 	jmp	0x7c	; 0x7c <__bad_interrupt>
   c:	0c 94 3e 00 	jmp	0x7c	; 0x7c <__bad_interrupt>
  10:	0c 94 3e 00 	jmp	0x7c	; 0x7c <__bad_interrupt>
  14:	0c 94 3e 00 	jmp	0x7c	; 0x7c <__bad_interrupt>
  18:	0c 94 3e 00 	jmp	0x7c	; 0x7c <__bad_interrupt>
  1c:	0c 94 3e 00 	jmp	0x7c	; 0x7c <__bad_interrupt>
  20:	0c 94 3e 00 	jmp	0x7c	; 0x7c <__bad_interrupt>
  24:	0c 94 3e 00 	jmp	0x7c	; 0x7c <__bad_interrupt>
  28:	0c 94 3e 00 	jmp	0x7c	; 0x7c <__bad_interrupt>
  2c:	0c 94 3e 00 	jmp	0x7c	; 0x7c <__bad_interrupt>
  30:	0c 94 3e 00 	jmp	0x7c	; 0x7c <__bad_interrupt>
  34:	0c 94 3e 00 	jmp	0x7c	; 0x7c <__bad_interrupt>
  38:	0c 94 3e 00 	jmp	0x7c	; 0x7c <__bad_interrupt>
  3c:	0c 94 3e 00 	jmp	0x7c	; 0x7c <__bad_interrupt>
  40:	0c 94 3e 00 	jmp	0x7c	; 0x7c <__bad_interrupt>
  44:	0c 94 3e 00 	jmp	0x7c	; 0x7c <__bad_interrupt>
  48:	0c 94 3e 00 	jmp	0x7c	; 0x7c <__bad_interrupt>
  4c:	0c 94 3e 00 	jmp	0x7c	; 0x7c <__bad_interrupt>
  50:	0c 94 3e 00 	jmp	0x7c	; 0x7c <__bad_interrupt>
  54:	0c 94 3e 00 	jmp	0x7c	; 0x7c <__bad_interrupt>
  58:	0c 94 3e 00 	jmp	0x7c	; 0x7c <__bad_interrupt>
  5c:	0c 94 3e 00 	jmp	0x7c	; 0x7c <__bad_interrupt>
  60:	0c 94 3e 00 	jmp	0x7c	; 0x7c <__bad_interrupt>
  64:	0c 94 3e 00 	jmp	0x7c	; 0x7c <__bad_interrupt>

00000068 <__ctors_end>:
  68:	11 24       	eor	r1, r1
  6a:	1f be       	out	0x3f, r1	; 63
  6c:	cf ef       	ldi	r28, 0xFF	; 255
  6e:	d8 e0       	ldi	r29, 0x08	; 8
  70:	de bf       	out	0x3e, r29	; 62
  72:	cd bf       	out	0x3d, r28	; 61
  74:	0e 94 62 00 	call	0xc4	; 0xc4 <main>
  78:	0c 94 70 00 	jmp	0xe0	; 0xe0 <_exit>

0000007c <__bad_interrupt>:
  7c:	0c 94 00 00 	jmp	0	; 0x0 <__vectors>

00000080 <tempo>:

.global tempo

tempo:

		clr		r18				
  80:	22 27       	eor	r18, r18
		sts		TCNT1H, R18
  82:	20 93 85 00 	sts	0x0085, r18	; 0x800085 <__TEXT_REGION_LENGTH__+0x7f8085>
		sts		TCNT1L, R18
  86:	20 93 84 00 	sts	0x0084, r18	; 0x800084 <__TEXT_REGION_LENGTH__+0x7f8084>
		ldi		R18, ((15625>>8)&0x00FF)
  8a:	2d e3       	ldi	r18, 0x3D	; 61
		STS		OCR1AH, R18
  8c:	20 93 89 00 	sts	0x0089, r18	; 0x800089 <__TEXT_REGION_LENGTH__+0x7f8089>
		ldi		R18, (15625&0x00FF)
  90:	29 e0       	ldi	r18, 0x09	; 9
		sts		OCR1AL, R18
  92:	20 93 88 00 	sts	0x0088, r18	; 0x800088 <__TEXT_REGION_LENGTH__+0x7f8088>
		clr		R18
  96:	22 27       	eor	r18, r18
		sts		TCCR1A, R18
  98:	20 93 80 00 	sts	0x0080, r18	; 0x800080 <__TEXT_REGION_LENGTH__+0x7f8080>
		ldi		R18, (1<<CS12)|(1<<CS10)
  9c:	25 e0       	ldi	r18, 0x05	; 5
		sts		TCCR1B, R18
  9e:	20 93 81 00 	sts	0x0081, r18	; 0x800081 <__TEXT_REGION_LENGTH__+0x7f8081>
		CLR		R18
  a2:	22 27       	eor	r18, r18
		STS		TCCR1C, R18
  a4:	20 93 82 00 	sts	0x0082, r18	; 0x800082 <__TEXT_REGION_LENGTH__+0x7f8082>
		CALL	wait
  a8:	0e 94 5d 00 	call	0xba	; 0xba <wait>
		LDI		R18, 1<<OCF1A
  ac:	22 e0       	ldi	r18, 0x02	; 2
		STS		TIFR1, R18
  ae:	20 93 36 00 	sts	0x0036, r18	; 0x800036 <__TEXT_REGION_LENGTH__+0x7f8036>
		CLR		R18
  b2:	22 27       	eor	r18, r18
		STS		TCCR1B, R18
  b4:	20 93 81 00 	sts	0x0081, r18	; 0x800081 <__TEXT_REGION_LENGTH__+0x7f8081>
		RET
  b8:	08 95       	ret

000000ba <wait>:

wait:							
		LDS		R18, TIFR1		;copie de tifr1 dans R18
  ba:	20 91 36 00 	lds	r18, 0x0036	; 0x800036 <__TEXT_REGION_LENGTH__+0x7f8036>
		SBRS	R18, OCF1A		;test si ocf1a = 1
  be:	21 ff       	sbrs	r18, 1
		RJMP	wait			;reboucle
  c0:	fc cf       	rjmp	.-8      	; 0xba <wait>
		ret						;retour
  c2:	08 95       	ret

000000c4 <main>:
extern void tempo();

int main(void)
{
    /* Replace with your application code */
	DDRB |= (1<<PORTB5);
  c4:	84 b1       	in	r24, 0x04	; 4
  c6:	80 62       	ori	r24, 0x20	; 32
  c8:	84 b9       	out	0x04, r24	; 4
    while (1) 
    {
		PORTB |= (1<<PORTB5);
  ca:	85 b1       	in	r24, 0x05	; 5
  cc:	80 62       	ori	r24, 0x20	; 32
  ce:	85 b9       	out	0x05, r24	; 5
		tempo();
  d0:	0e 94 40 00 	call	0x80	; 0x80 <tempo>
		PORTB &= ~(1<<PORTB5);
  d4:	85 b1       	in	r24, 0x05	; 5
  d6:	8f 7d       	andi	r24, 0xDF	; 223
  d8:	85 b9       	out	0x05, r24	; 5
		tempo();
  da:	0e 94 40 00 	call	0x80	; 0x80 <tempo>
  de:	f5 cf       	rjmp	.-22     	; 0xca <main+0x6>

000000e0 <_exit>:
  e0:	f8 94       	cli

000000e2 <__stop_program>:
  e2:	ff cf       	rjmp	.-2      	; 0xe2 <__stop_program>
