S00B00006578312E737265630B
S11300000C9434000C943E000C943E000C943E007E
S11300100C943E000C943E000C943E000C943E0064
S11300200C943E000C943E000C943E000C943E0054
S11300300C943E000C943E000C943E000C943E0044
S11300400C943E000C943E000C943E000C943E0034
S11300500C943E000C943E000C943E000C943E0024
S11300600C943E000C943E0011241FBECFEFD8E048
S1130070DEBFCDBF0E9462000C9470000C9400009F
S1130080222720938500209384002DE32093890068
S113009029E02093880022272093800025E02093E4
S11300A081002227209382000E945D0022E0209399
S11300B0360022272093810008952091360021FFE5
S11300C0FCCF089584B1806284B985B1806285B91A
S11300D00E94400085B18F7D85B90E944000F5CF14
S10700E0F894FFCFBE
S9030000FC
